{
  "contractName": "Rental",
  "abi": [
    {
      "constant": true,
      "inputs": [
        {
          "name": "",
          "type": "uint256"
        }
      ],
      "name": "rentals",
      "outputs": [
        {
          "name": "make",
          "type": "string"
        },
        {
          "name": "isAvailable",
          "type": "bool"
        },
        {
          "name": "rentee",
          "type": "address"
        },
        {
          "name": "owner",
          "type": "address"
        },
        {
          "name": "year",
          "type": "uint256"
        },
        {
          "name": "licenseNumber",
          "type": "string"
        },
        {
          "name": "carId",
          "type": "uint256"
        }
      ],
      "payable": false,
      "stateMutability": "view",
      "type": "function"
    },
    {
      "inputs": [],
      "payable": false,
      "stateMutability": "nonpayable",
      "type": "constructor"
    },
    {
      "constant": true,
      "inputs": [],
      "name": "getStopped",
      "outputs": [
        {
          "name": "",
          "type": "bool"
        }
      ],
      "payable": false,
      "stateMutability": "view",
      "type": "function"
    },
    {
      "constant": false,
      "inputs": [],
      "name": "toggleContractActive",
      "outputs": [],
      "payable": false,
      "stateMutability": "nonpayable",
      "type": "function"
    },
    {
      "constant": true,
      "inputs": [],
      "name": "getCarCount",
      "outputs": [
        {
          "name": "",
          "type": "uint256"
        }
      ],
      "payable": false,
      "stateMutability": "view",
      "type": "function"
    },
    {
      "constant": false,
      "inputs": [
        {
          "name": "carId",
          "type": "uint256"
        }
      ],
      "name": "rent",
      "outputs": [
        {
          "name": "",
          "type": "bool"
        }
      ],
      "payable": false,
      "stateMutability": "nonpayable",
      "type": "function"
    },
    {
      "constant": true,
      "inputs": [
        {
          "name": "carId",
          "type": "uint256"
        }
      ],
      "name": "getRentalCarInfo",
      "outputs": [
        {
          "name": "",
          "type": "string"
        },
        {
          "name": "",
          "type": "string"
        },
        {
          "name": "",
          "type": "address"
        },
        {
          "name": "",
          "type": "address"
        },
        {
          "name": "",
          "type": "bool"
        },
        {
          "name": "",
          "type": "uint256"
        },
        {
          "name": "",
          "type": "uint256"
        }
      ],
      "payable": false,
      "stateMutability": "view",
      "type": "function"
    },
    {
      "constant": false,
      "inputs": [
        {
          "name": "make",
          "type": "string"
        },
        {
          "name": "owner",
          "type": "address"
        },
        {
          "name": "licenseNumber",
          "type": "string"
        },
        {
          "name": "year",
          "type": "uint256"
        }
      ],
      "name": "addNewCar",
      "outputs": [
        {
          "name": "",
          "type": "uint256"
        }
      ],
      "payable": false,
      "stateMutability": "nonpayable",
      "type": "function"
    },
    {
      "constant": false,
      "inputs": [
        {
          "name": "carId",
          "type": "uint256"
        }
      ],
      "name": "returnCar",
      "outputs": [
        {
          "name": "",
          "type": "bool"
        }
      ],
      "payable": false,
      "stateMutability": "nonpayable",
      "type": "function"
    }
  ],
  "bytecode": "0x608060405260008060006101000a81548160ff02191690831515021790555034801561002a57600080fd5b5033600060016101000a81548173ffffffffffffffffffffffffffffffffffffffff021916908373ffffffffffffffffffffffffffffffffffffffff16021790555061100a8061007b6000396000f30060806040526004361061008e576000357c0100000000000000000000000000000000000000000000000000000000900463ffffffff1680631385d24c1461009357806317f956e0146100aa578063197419d5146100ef57806327436b591461011e57806356b63897146101495780637456be7d146102da5780638191875b1461031f578063af94a1d11461040c575b600080fd5b34801561009f57600080fd5b506100a861059d565b005b3480156100b657600080fd5b506100d560048036038101908080359060200190929190505050610620565b604051808215151515815260200191505060405180910390f35b3480156100fb57600080fd5b50610104610723565b604051808215151515815260200191505060405180910390f35b34801561012a57600080fd5b50610133610739565b6040518082815260200191505060405180910390f35b34801561015557600080fd5b5061017460048036038101908080359060200190929190505050610746565b6040518080602001806020018873ffffffffffffffffffffffffffffffffffffffff1673ffffffffffffffffffffffffffffffffffffffff1681526020018773ffffffffffffffffffffffffffffffffffffffff1673ffffffffffffffffffffffffffffffffffffffff1681526020018615151515815260200185815260200184815260200183810383528a818151815260200191508051906020019080838360005b83811015610232578082015181840152602081019050610217565b50505050905090810190601f16801561025f5780820380516001836020036101000a031916815260200191505b50838103825289818151815260200191508051906020019080838360005b8381101561029857808201518184015260208101905061027d565b50505050905090810190601f1680156102c55780820380516001836020036101000a031916815260200191505b50995050505050505050505060405180910390f35b3480156102e657600080fd5b5061030560048036038101908080359060200190929190505050610a42565b604051808215151515815260200191505060405180910390f35b34801561032b57600080fd5b506103f6600480360381019080803590602001908201803590602001908080601f0160208091040260200160405190810160405280939291908181526020018383808284378201915050505050509192919290803573ffffffffffffffffffffffffffffffffffffffff169060200190929190803590602001908201803590602001908080601f016020809104026020016040519081016040528093929190818152602001838380828437820191505050505050919291929080359060200190929190505050610b32565b6040518082815260200191505060405180910390f35b34801561041857600080fd5b5061043760048036038101908080359060200190929190505050610cff565b6040518080602001881515151581526020018773ffffffffffffffffffffffffffffffffffffffff1673ffffffffffffffffffffffffffffffffffffffff1681526020018673ffffffffffffffffffffffffffffffffffffffff1673ffffffffffffffffffffffffffffffffffffffff1681526020018581526020018060200184815260200183810383528a818151815260200191508051906020019080838360005b838110156104f55780820151818401526020810190506104da565b50505050905090810190601f1680156105225780820380516001836020036101000a031916815260200191505b50838103825285818151815260200191508051906020019080838360005b8381101561055b578082015181840152602081019050610540565b50505050905090810190601f1680156105885780820380516001836020036101000a031916815260200191505b50995050505050505050505060405180910390f35b600060019054906101000a900473ffffffffffffffffffffffffffffffffffffffff1673ffffffffffffffffffffffffffffffffffffffff163373ffffffffffffffffffffffffffffffffffffffff161415156105f657fe5b6000809054906101000a900460ff16156000806101000a81548160ff021916908315150217905550565b6000806000809054906101000a900460ff1615151561063b57fe5b60018381548110151561064a57fe5b906000526020600020906006020190503373ffffffffffffffffffffffffffffffffffffffff168160020160009054906101000a900473ffffffffffffffffffffffffffffffffffffffff1673ffffffffffffffffffffffffffffffffffffffff161415156106b857600080fd5b60018160010160006101000a81548160ff02191690831515021790555060008160010160016101000a81548173ffffffffffffffffffffffffffffffffffffffff021916908373ffffffffffffffffffffffffffffffffffffffff1602179055506001915050919050565b60008060009054906101000a900460ff16905090565b6000600180549050905090565b60608060008060008060008061075a610ecd565b6000610764610739565b925060008b101580156107765750828b105b151561078157600080fd5b60018b81548110151561079057fe5b906000526020600020906006020160e06040519081016040529081600082018054600181600116156101000203166002900480601f0160208091040260200160405190810160405280929190818152602001828054600181600116156101000203166002900480156108435780601f1061081857610100808354040283529160200191610843565b820191906000526020600020905b81548152906001019060200180831161082657829003601f168201915b505050505081526020016001820160009054906101000a900460ff161515151581526020016001820160019054906101000a900473ffffffffffffffffffffffffffffffffffffffff1673ffffffffffffffffffffffffffffffffffffffff1673ffffffffffffffffffffffffffffffffffffffff1681526020016002820160009054906101000a900473ffffffffffffffffffffffffffffffffffffffff1673ffffffffffffffffffffffffffffffffffffffff1673ffffffffffffffffffffffffffffffffffffffff16815260200160038201548152602001600482018054600181600116156101000203166002900480601f0160208091040260200160405190810160405280929190818152602001828054600181600116156101000203166002900480156109b65780601f1061098b576101008083540402835291602001916109b6565b820191906000526020600020905b81548152906001019060200180831161099957829003601f168201915b5050505050815260200160058201548152505091503373ffffffffffffffffffffffffffffffffffffffff16826060015173ffffffffffffffffffffffffffffffffffffffff161415905081600001518260a00151836060015184604001518486608001518760c001518696508595509950995099509950995099509950505050919395979092949650565b60008060008060009054906101000a900460ff16151515610a5f57fe5b610a67610739565b915060008410158015610a7957508184105b1515610a8457600080fd5b600184815481101515610a9357fe5b90600052602060002090600602019050600115158160010160009054906101000a900460ff161515141515610ac757600080fd5b338160010160016101000a81548173ffffffffffffffffffffffffffffffffffffffff021916908373ffffffffffffffffffffffffffffffffffffffff16021790555060008160010160006101000a81548160ff021916908315150217905550600192505050919050565b600080610b3d610ecd565b6000809054906101000a900460ff16151515610b5557fe5b610b5d610739565b915060e060405190810160405280888152602001600115158152602001600073ffffffffffffffffffffffffffffffffffffffff1681526020018773ffffffffffffffffffffffffffffffffffffffff168152602001858152602001868152602001838152509050600181908060018154018082558091505090600182039060005260206000209060060201600090919290919091506000820151816000019080519060200190610c0f929190610f39565b5060208201518160010160006101000a81548160ff02191690831515021790555060408201518160010160016101000a81548173ffffffffffffffffffffffffffffffffffffffff021916908373ffffffffffffffffffffffffffffffffffffffff16021790555060608201518160020160006101000a81548173ffffffffffffffffffffffffffffffffffffffff021916908373ffffffffffffffffffffffffffffffffffffffff1602179055506080820151816003015560a0820151816004019080519060200190610ce4929190610f39565b5060c082015181600501555050508192505050949350505050565b600181815481101515610d0e57fe5b9060005260206000209060060201600091509050806000018054600181600116156101000203166002900480601f016020809104026020016040519081016040528092919081815260200182805460018160011615610100020316600290048015610dba5780601f10610d8f57610100808354040283529160200191610dba565b820191906000526020600020905b815481529060010190602001808311610d9d57829003601f168201915b5050505050908060010160009054906101000a900460ff16908060010160019054906101000a900473ffffffffffffffffffffffffffffffffffffffff16908060020160009054906101000a900473ffffffffffffffffffffffffffffffffffffffff1690806003015490806004018054600181600116156101000203166002900480601f016020809104026020016040519081016040528092919081815260200182805460018160011615610100020316600290048015610ebd5780601f10610e9257610100808354040283529160200191610ebd565b820191906000526020600020905b815481529060010190602001808311610ea057829003601f168201915b5050505050908060050154905087565b60e06040519081016040528060608152602001600015158152602001600073ffffffffffffffffffffffffffffffffffffffff168152602001600073ffffffffffffffffffffffffffffffffffffffff1681526020016000815260200160608152602001600081525090565b828054600181600116156101000203166002900490600052602060002090601f016020900481019282601f10610f7a57805160ff1916838001178555610fa8565b82800160010185558215610fa8579182015b82811115610fa7578251825591602001919060010190610f8c565b5b509050610fb59190610fb9565b5090565b610fdb91905b80821115610fd7576000816000905550600101610fbf565b5090565b905600a165627a7a7230582008fae02c7fe8aa3c211f20730631e44836a857d372b51336b96f7be9f6a45afa0029",
  "source": "pragma solidity ^0.4.23;\n\nimport {CarLib} from \"./CarLib.sol\";\n\ncontract Rental {\n    \n    bool private stopped = false;\n    address private manager;\n\n     // The constructor. We assign the manager to be the creator of the contract.It could be enhanced to support passing maangement off.\n    constructor() public  \n    {\n        manager = msg.sender;\n    }\n\n    //Check if sender isAdmin, this function alone could be added to multiple functions for manager only method calls\n    modifier isAdmin() {\n        assert(msg.sender == manager);\n        _;\n    }\n    \n    //Check if the contracts features are deactivated\n    function getStopped() public view returns(bool) { return stopped; }\n\n    \n    function toggleContractActive() isAdmin public {\n    // You can add an additional modifier that restricts stopping a contract to be based on another action, such as a vote of users\n        stopped = !stopped;\n    }\n\n\n    //Number of Cars available for rent\n    CarLib.Car[] public rentals;\n\n    //Return Total Number of Cars\n    function getCarCount() public constant returns(uint) {\n        return rentals.length;\n    }\n\n    //Renting a car \n    function rent(uint carId) public returns (bool) {\n       \n       //Never Ever want to be false, therefore we use assert\n       assert(!stopped); \n        \n        \n       //Validate cardId is within array\n      uint totalCars = getCarCount();\n      \n    //There must be a car to rent and ID # must be within range \n      require(carId >= 0 && carId < totalCars);\n    \n    //Reference to the car that will be rented \n    CarLib.Car storage carToBeRented = rentals[carId];\n    \n    //Car must be available\n    require(carToBeRented.isAvailable == true);\n\n   \n      \n      //Assign Rentee to Sender\n      carToBeRented.rentee = msg.sender;\n      \n      //Remove Availability\n      carToBeRented.isAvailable = false; \n      \n     //Return Success\n      return true;\n    }\n\n    // Retrieving the car data necessary for user\n    function getRentalCarInfo(uint carId) public view returns (string, string, address, address, bool, uint, uint) {\n      \n      uint totalCars = getCarCount();\n      require(carId >= 0 && carId < totalCars);\n      \n      //Get specified car \n      CarLib.Car memory specificCar = rentals[carId];\n\n      bool isAvailable = specificCar.owner != msg.sender;\n\n      \n      //Return data considered in rental process\n      return (specificCar.make,specificCar.licenseNumber, specificCar.owner ,specificCar.rentee, isAvailable, specificCar.year , specificCar.carId);\n    }\n\n    //Add RentableCar\n    function addNewCar(string make, address owner, string licenseNumber, uint year) public returns (uint) {\n        assert(!stopped); \n        //Create car object within function\n        \n        //Current # of cars\n        uint count = getCarCount();\n        //Increment Count\n        //Construct Car Object\n        \n        CarLib.Car memory newCar = CarLib.Car(make, true, 0x0 , owner, year,licenseNumber,count);\n        \n        //Add to Array\n        rentals.push(newCar);\n        \n         return count;\n    }\n    \n    //Allow Car Owner to Mark car as returned\n    function returnCar(uint carId) public  returns (bool) {\n        assert(!stopped); \n        \n        //Get Specific car\n        CarLib.Car storage specificCar = rentals[carId];\n        require(specificCar.owner == msg.sender);\n        //Make car available again\n        specificCar.isAvailable = true;\n        //Remove previous rentee\n        specificCar.rentee = 0x0;\n        \n        //Return Success\n        return true;\n    }\n\n}",
  "sourcePath": "/media/akshay/a82b5d9a-bbeb-43cf-9985-9bb79e6521e1/akshay/Documents/EthIndia/carChain/contracts/Rental.sol",
  "compiler": {
    "name": "solc",
    "version": "0.4.23+commit.124ca40d.Emscripten.clang"
  },
  "schemaVersion": "3.0.11",
  "updatedAt": "2019-08-02T22:33:14.891Z",
  "devdoc": {
    "methods": {}
  },
  "userdoc": {
    "methods": {}
  }
}